{
  "_format": "hh-sol-artifact-1",
  "contractName": "BinanceBalanceVault",
  "sourceName": "contracts/BinanceBalanceVault.sol",
  "abi": [
    {
      "anonymous": false,
      "inputs": [
        {
          "indexed": false,
          "internalType": "address",
          "name": "previousAdmin",
          "type": "address"
        },
        {
          "indexed": false,
          "internalType": "address",
          "name": "newAdmin",
          "type": "address"
        }
      ],
      "name": "AdminChanged",
      "type": "event"
    },
    {
      "anonymous": false,
      "inputs": [
        {
          "indexed": true,
          "internalType": "address",
          "name": "beacon",
          "type": "address"
        }
      ],
      "name": "BeaconUpgraded",
      "type": "event"
    },
    {
      "anonymous": false,
      "inputs": [],
      "name": "BinanceBalanceVaultPaused",
      "type": "event"
    },
    {
      "anonymous": false,
      "inputs": [],
      "name": "BinanceBalanceVaultUnpaused",
      "type": "event"
    },
    {
      "anonymous": false,
      "inputs": [
        {
          "indexed": false,
          "internalType": "address",
          "name": "TokenAddress",
          "type": "address"
        },
        {
          "indexed": false,
          "internalType": "address",
          "name": "UserAddress",
          "type": "address"
        },
        {
          "indexed": false,
          "internalType": "uint256",
          "name": "Amount",
          "type": "uint256"
        }
      ],
      "name": "DecreaseBalance",
      "type": "event"
    },
    {
      "anonymous": false,
      "inputs": [
        {
          "indexed": false,
          "internalType": "address",
          "name": "TokenAddress",
          "type": "address"
        }
      ],
      "name": "DeleteTokenAddress",
      "type": "event"
    },
    {
      "anonymous": false,
      "inputs": [
        {
          "indexed": false,
          "internalType": "address",
          "name": "TokenAddress",
          "type": "address"
        },
        {
          "indexed": false,
          "internalType": "uint256",
          "name": "Amount",
          "type": "uint256"
        }
      ],
      "name": "DepositToken",
      "type": "event"
    },
    {
      "anonymous": false,
      "inputs": [
        {
          "indexed": false,
          "internalType": "address",
          "name": "UserAddress",
          "type": "address"
        },
        {
          "indexed": false,
          "internalType": "address",
          "name": "TokenAddress",
          "type": "address"
        },
        {
          "indexed": false,
          "internalType": "uint256",
          "name": "Amount",
          "type": "uint256"
        }
      ],
      "name": "IncreaseBalance",
      "type": "event"
    },
    {
      "anonymous": false,
      "inputs": [
        {
          "indexed": false,
          "internalType": "address",
          "name": "FromAddress",
          "type": "address"
        },
        {
          "indexed": false,
          "internalType": "address",
          "name": "ToAddress",
          "type": "address"
        },
        {
          "indexed": false,
          "internalType": "address",
          "name": "TokenAddress",
          "type": "address"
        },
        {
          "indexed": false,
          "internalType": "uint256",
          "name": "Amount",
          "type": "uint256"
        }
      ],
      "name": "IncreaseBalanceFrom",
      "type": "event"
    },
    {
      "anonymous": false,
      "inputs": [
        {
          "indexed": true,
          "internalType": "address",
          "name": "previousOwner",
          "type": "address"
        },
        {
          "indexed": true,
          "internalType": "address",
          "name": "newOwner",
          "type": "address"
        }
      ],
      "name": "OwnershipTransferred",
      "type": "event"
    },
    {
      "anonymous": false,
      "inputs": [
        {
          "indexed": true,
          "internalType": "bytes32",
          "name": "role",
          "type": "bytes32"
        },
        {
          "indexed": true,
          "internalType": "bytes32",
          "name": "previousAdminRole",
          "type": "bytes32"
        },
        {
          "indexed": true,
          "internalType": "bytes32",
          "name": "newAdminRole",
          "type": "bytes32"
        }
      ],
      "name": "RoleAdminChanged",
      "type": "event"
    },
    {
      "anonymous": false,
      "inputs": [
        {
          "indexed": true,
          "internalType": "bytes32",
          "name": "role",
          "type": "bytes32"
        },
        {
          "indexed": true,
          "internalType": "address",
          "name": "account",
          "type": "address"
        },
        {
          "indexed": true,
          "internalType": "address",
          "name": "sender",
          "type": "address"
        }
      ],
      "name": "RoleGranted",
      "type": "event"
    },
    {
      "anonymous": false,
      "inputs": [
        {
          "indexed": true,
          "internalType": "bytes32",
          "name": "role",
          "type": "bytes32"
        },
        {
          "indexed": true,
          "internalType": "address",
          "name": "account",
          "type": "address"
        },
        {
          "indexed": true,
          "internalType": "address",
          "name": "sender",
          "type": "address"
        }
      ],
      "name": "RoleRevoked",
      "type": "event"
    },
    {
      "anonymous": false,
      "inputs": [
        {
          "indexed": false,
          "internalType": "address",
          "name": "TokenAddress",
          "type": "address"
        }
      ],
      "name": "SetTokenAddress",
      "type": "event"
    },
    {
      "anonymous": false,
      "inputs": [
        {
          "indexed": true,
          "internalType": "address",
          "name": "implementation",
          "type": "address"
        }
      ],
      "name": "Upgraded",
      "type": "event"
    },
    {
      "anonymous": false,
      "inputs": [
        {
          "indexed": false,
          "internalType": "address[]",
          "name": "TokenAddress",
          "type": "address[]"
        },
        {
          "indexed": false,
          "internalType": "uint256[]",
          "name": "Amount",
          "type": "uint256[]"
        }
      ],
      "name": "WithdrawAllToken",
      "type": "event"
    },
    {
      "anonymous": false,
      "inputs": [
        {
          "indexed": false,
          "internalType": "address",
          "name": "TokenAddress",
          "type": "address"
        },
        {
          "indexed": false,
          "internalType": "uint256",
          "name": "Amount",
          "type": "uint256"
        }
      ],
      "name": "WithdrawByToken",
      "type": "event"
    },
    {
      "inputs": [
        {
          "internalType": "address",
          "name": "",
          "type": "address"
        }
      ],
      "name": "AmountInPool",
      "outputs": [
        {
          "internalType": "uint256",
          "name": "",
          "type": "uint256"
        }
      ],
      "stateMutability": "view",
      "type": "function"
    },
    {
      "inputs": [],
      "name": "DEFAULT_ADMIN_ROLE",
      "outputs": [
        {
          "internalType": "bytes32",
          "name": "",
          "type": "bytes32"
        }
      ],
      "stateMutability": "view",
      "type": "function"
    },
    {
      "inputs": [
        {
          "internalType": "address",
          "name": "",
          "type": "address"
        }
      ],
      "name": "PoolOfAdmin",
      "outputs": [
        {
          "internalType": "uint256",
          "name": "",
          "type": "uint256"
        }
      ],
      "stateMutability": "view",
      "type": "function"
    },
    {
      "inputs": [],
      "name": "WORKER_ROLE",
      "outputs": [
        {
          "internalType": "bytes32",
          "name": "",
          "type": "bytes32"
        }
      ],
      "stateMutability": "view",
      "type": "function"
    },
    {
      "inputs": [],
      "name": "adminAddress",
      "outputs": [
        {
          "internalType": "address",
          "name": "",
          "type": "address"
        }
      ],
      "stateMutability": "view",
      "type": "function"
    },
    {
      "inputs": [
        {
          "internalType": "address",
          "name": "_userAddress",
          "type": "address"
        },
        {
          "internalType": "address",
          "name": "_tokenAddress",
          "type": "address"
        },
        {
          "internalType": "uint256",
          "name": "_amount",
          "type": "uint256"
        }
      ],
      "name": "decreaseBalance",
      "outputs": [],
      "stateMutability": "nonpayable",
      "type": "function"
    },
    {
      "inputs": [
        {
          "internalType": "address",
          "name": "_tokenAddress",
          "type": "address"
        }
      ],
      "name": "deleteTokenAddress",
      "outputs": [],
      "stateMutability": "nonpayable",
      "type": "function"
    },
    {
      "inputs": [
        {
          "internalType": "address",
          "name": "_tokenAddress",
          "type": "address"
        },
        {
          "internalType": "uint256",
          "name": "_amount",
          "type": "uint256"
        }
      ],
      "name": "depositToken",
      "outputs": [],
      "stateMutability": "nonpayable",
      "type": "function"
    },
    {
      "inputs": [
        {
          "internalType": "address",
          "name": "_userAddress",
          "type": "address"
        }
      ],
      "name": "getAllTokenAddressByUser",
      "outputs": [
        {
          "internalType": "address[]",
          "name": "",
          "type": "address[]"
        }
      ],
      "stateMutability": "view",
      "type": "function"
    },
    {
      "inputs": [],
      "name": "getAllTokenAddressInContract",
      "outputs": [
        {
          "internalType": "address[]",
          "name": "",
          "type": "address[]"
        }
      ],
      "stateMutability": "view",
      "type": "function"
    },
    {
      "inputs": [
        {
          "internalType": "address",
          "name": "_userAddress",
          "type": "address"
        },
        {
          "internalType": "address",
          "name": "_tokenAddress",
          "type": "address"
        }
      ],
      "name": "getBalanceOf",
      "outputs": [
        {
          "internalType": "uint256",
          "name": "",
          "type": "uint256"
        }
      ],
      "stateMutability": "view",
      "type": "function"
    },
    {
      "inputs": [
        {
          "internalType": "bytes32",
          "name": "role",
          "type": "bytes32"
        }
      ],
      "name": "getRoleAdmin",
      "outputs": [
        {
          "internalType": "bytes32",
          "name": "",
          "type": "bytes32"
        }
      ],
      "stateMutability": "view",
      "type": "function"
    },
    {
      "inputs": [
        {
          "internalType": "bytes32",
          "name": "role",
          "type": "bytes32"
        },
        {
          "internalType": "address",
          "name": "account",
          "type": "address"
        }
      ],
      "name": "grantRole",
      "outputs": [],
      "stateMutability": "nonpayable",
      "type": "function"
    },
    {
      "inputs": [
        {
          "internalType": "bytes32",
          "name": "role",
          "type": "bytes32"
        },
        {
          "internalType": "address",
          "name": "account",
          "type": "address"
        }
      ],
      "name": "hasRole",
      "outputs": [
        {
          "internalType": "bool",
          "name": "",
          "type": "bool"
        }
      ],
      "stateMutability": "view",
      "type": "function"
    },
    {
      "inputs": [
        {
          "internalType": "address",
          "name": "_userAddress",
          "type": "address"
        },
        {
          "internalType": "address",
          "name": "_tokenAddress",
          "type": "address"
        },
        {
          "internalType": "uint256",
          "name": "_amount",
          "type": "uint256"
        }
      ],
      "name": "increaseBalance",
      "outputs": [],
      "stateMutability": "nonpayable",
      "type": "function"
    },
    {
      "inputs": [
        {
          "internalType": "address",
          "name": "_fromAddress",
          "type": "address"
        },
        {
          "internalType": "address",
          "name": "_toAddress",
          "type": "address"
        },
        {
          "internalType": "address",
          "name": "_tokenAddress",
          "type": "address"
        },
        {
          "internalType": "uint256",
          "name": "_amount",
          "type": "uint256"
        }
      ],
      "name": "increaseBalanceFrom",
      "outputs": [],
      "stateMutability": "nonpayable",
      "type": "function"
    },
    {
      "inputs": [
        {
          "internalType": "address",
          "name": "_tokenAddress",
          "type": "address"
        },
        {
          "internalType": "address",
          "name": "_adminAddress",
          "type": "address"
        }
      ],
      "name": "initialize",
      "outputs": [],
      "stateMutability": "nonpayable",
      "type": "function"
    },
    {
      "inputs": [
        {
          "internalType": "bytes32",
          "name": "_role",
          "type": "bytes32"
        },
        {
          "internalType": "address[]",
          "name": "_workerAddress",
          "type": "address[]"
        }
      ],
      "name": "multiGrantRole",
      "outputs": [],
      "stateMutability": "nonpayable",
      "type": "function"
    },
    {
      "inputs": [],
      "name": "owner",
      "outputs": [
        {
          "internalType": "address",
          "name": "",
          "type": "address"
        }
      ],
      "stateMutability": "view",
      "type": "function"
    },
    {
      "inputs": [],
      "name": "pauseBinanceBalanceVault",
      "outputs": [],
      "stateMutability": "nonpayable",
      "type": "function"
    },
    {
      "inputs": [],
      "name": "renounceOwnership",
      "outputs": [],
      "stateMutability": "nonpayable",
      "type": "function"
    },
    {
      "inputs": [
        {
          "internalType": "bytes32",
          "name": "role",
          "type": "bytes32"
        },
        {
          "internalType": "address",
          "name": "account",
          "type": "address"
        }
      ],
      "name": "renounceRole",
      "outputs": [],
      "stateMutability": "nonpayable",
      "type": "function"
    },
    {
      "inputs": [
        {
          "internalType": "bytes32",
          "name": "role",
          "type": "bytes32"
        },
        {
          "internalType": "address",
          "name": "account",
          "type": "address"
        }
      ],
      "name": "revokeRole",
      "outputs": [],
      "stateMutability": "nonpayable",
      "type": "function"
    },
    {
      "inputs": [
        {
          "internalType": "address",
          "name": "_adminAddress",
          "type": "address"
        }
      ],
      "name": "setAdmin",
      "outputs": [],
      "stateMutability": "nonpayable",
      "type": "function"
    },
    {
      "inputs": [
        {
          "internalType": "address",
          "name": "_tokenAddress",
          "type": "address"
        }
      ],
      "name": "setTokenAddress",
      "outputs": [],
      "stateMutability": "nonpayable",
      "type": "function"
    },
    {
      "inputs": [
        {
          "internalType": "bytes4",
          "name": "interfaceId",
          "type": "bytes4"
        }
      ],
      "name": "supportsInterface",
      "outputs": [
        {
          "internalType": "bool",
          "name": "",
          "type": "bool"
        }
      ],
      "stateMutability": "view",
      "type": "function"
    },
    {
      "inputs": [
        {
          "internalType": "address",
          "name": "newOwner",
          "type": "address"
        }
      ],
      "name": "transferOwnership",
      "outputs": [],
      "stateMutability": "nonpayable",
      "type": "function"
    },
    {
      "inputs": [],
      "name": "unpauseBinanceBalanceVault",
      "outputs": [],
      "stateMutability": "nonpayable",
      "type": "function"
    },
    {
      "inputs": [
        {
          "internalType": "address",
          "name": "newImplementation",
          "type": "address"
        }
      ],
      "name": "upgradeTo",
      "outputs": [],
      "stateMutability": "nonpayable",
      "type": "function"
    },
    {
      "inputs": [
        {
          "internalType": "address",
          "name": "newImplementation",
          "type": "address"
        },
        {
          "internalType": "bytes",
          "name": "data",
          "type": "bytes"
        }
      ],
      "name": "upgradeToAndCall",
      "outputs": [],
      "stateMutability": "payable",
      "type": "function"
    },
    {
      "inputs": [],
      "name": "withdrawAllToken",
      "outputs": [],
      "stateMutability": "nonpayable",
      "type": "function"
    },
    {
      "inputs": [
        {
          "internalType": "address",
          "name": "_tokenAddress",
          "type": "address"
        },
        {
          "internalType": "uint256",
          "name": "_amount",
          "type": "uint256"
        }
      ],
      "name": "withdrawByToken",
      "outputs": [],
      "stateMutability": "nonpayable",
      "type": "function"
    },
    {
      "inputs": [],
      "name": "withdrawForAddmin",
      "outputs": [],
      "stateMutability": "nonpayable",
      "type": "function"
    }
  ],
  "bytecode": "0x60a06040523060805234801561001457600080fd5b50608051613a396100456000396000818161162e0152818161166e015281816117d501526118150152613a396000f3fe6080604052600436106101ee5760003560e01c806364023b601161010d578063a1fc83c7116100a0578063d547741f1161006f578063d547741f146105a4578063d58dc12f146105c4578063ebcd753d146105f2578063f2fde38b14610612578063fc6f94681461063257600080fd5b8063a1fc83c71461052c578063a217fddf14610541578063a7f5eabf14610556578063c6d0a4ca1461058457600080fd5b806389a4b2a2116100dc57806389a4b2a21461049a5780638da5cb5b146104ba57806391d14854146104ec578063967506be1461050c57600080fd5b806364023b60146104305780636483261014610450578063704b6c0214610465578063715018a61461048557600080fd5b8063338b5dea116101855780634f1ef286116101545780634f1ef2861461039457806353290b44146103a75780636297323f146103ee578063634252dc1461040e57600080fd5b8063338b5dea1461031457806336568abe146103345780633659cfe614610354578063485cc9551461037457600080fd5b8063248a9ca3116101c1578063248a9ca31461027657806326a4e8d2146102b45780632be521b2146102d45780632f2ff15d146102f457600080fd5b806301ffc9a7146101f357806314870d2c146102285780631b2f69201461023f5780631d30016d14610261575b600080fd5b3480156101ff57600080fd5b5061021361020e3660046132ac565b610658565b60405190151581526020015b60405180910390f35b34801561023457600080fd5b5061023d61068f565b005b34801561024b57600080fd5b50610254610ab1565b60405161021f919061331a565b34801561026d57600080fd5b5061023d610b98565b34801561028257600080fd5b506102a661029136600461332d565b600090815260fb602052604090206001015490565b60405190815260200161021f565b3480156102c057600080fd5b5061023d6102cf366004613362565b610fd4565b3480156102e057600080fd5b5061023d6102ef36600461337d565b611123565b34801561030057600080fd5b5061023d61030f3660046133b9565b61132b565b34801561032057600080fd5b5061023d61032f3660046133e5565b611356565b34801561034057600080fd5b5061023d61034f3660046133b9565b6115a6565b34801561036057600080fd5b5061023d61036f366004613362565b611624565b34801561038057600080fd5b5061023d61038f36600461340f565b6116ec565b61023d6103a2366004613480565b6117cb565b3480156103b357600080fd5b506102a66103c236600461340f565b6001600160a01b0391821660009081526101606020908152604080832093909416825291909152205490565b3480156103fa57600080fd5b50610254610409366004613362565b611880565b34801561041a57600080fd5b506102a66000805160206139bd83398151915281565b34801561043c57600080fd5b5061023d61044b366004613526565b61197a565b34801561045c57600080fd5b5061023d611c78565b34801561047157600080fd5b5061023d610480366004613362565b611d51565b34801561049157600080fd5b5061023d611da4565b3480156104a657600080fd5b5061023d6104b5366004613571565b611dda565b3480156104c657600080fd5b506097546001600160a01b03165b6040516001600160a01b03909116815260200161021f565b3480156104f857600080fd5b506102136105073660046133b9565b611e22565b34801561051857600080fd5b5061023d610527366004613362565b611e4d565b34801561053857600080fd5b5061023d611f5f565b34801561054d57600080fd5b506102a6600081565b34801561056257600080fd5b506102a6610571366004613362565b6101646020526000908152604090205481565b34801561059057600080fd5b5061023d61059f36600461337d565b611fe6565b3480156105b057600080fd5b5061023d6105bf3660046133b9565b61220a565b3480156105d057600080fd5b506102a66105df366004613362565b6101636020526000908152604090205481565b3480156105fe57600080fd5b5061023d61060d3660046133e5565b612230565b34801561061e57600080fd5b5061023d61062d366004613362565b612448565b34801561063e57600080fd5b5061015f546104d49061010090046001600160a01b031681565b60006001600160e01b03198216637965db0b60e01b148061068957506301ffc9a760e01b6001600160e01b03198316145b92915050565b61015f5460ff16156106bc5760405162461bcd60e51b81526004016106b39061362a565b60405180910390fd5b30600090815261016260205260408120548190818167ffffffffffffffff8111156106e9576106e9613439565b604051908082528060200260200182016040528015610712578160200160208202803683370190505b50905060008267ffffffffffffffff81111561073057610730613439565b604051908082528060200260200182016040528015610759578160200160208202803683370190505b50905060005b838110156109df573360009081526101606020908152604080832030845261016290925282208054899391908590811061079b5761079b613691565b60009182526020808320909101546001600160a01b031683528201929092526040019020546107ca91906136bd565b33600090815261016060209081526040808320308452610162909252822080549399509092849081106107ff576107ff613691565b60009182526020808320909101546001600160a01b03168352828101939093526040918201812054308252610162909352908120805492975087926101639291908590811061085057610850613691565b60009182526020808320909101546001600160a01b03168352820192909252604001812080549091906108849084906136d0565b9091555050336000908152610160602090815260408083203084526101629092528220805488939190859081106108bd576108bd613691565b60009182526020808320909101546001600160a01b03168352820192909252604001812080549091906108f19084906136d0565b909155505030600090815261016260205260409020805461093d9133918891908590811061092157610921613691565b6000918252602090912001546001600160a01b031691906124e0565b3060009081526101626020526040902080548290811061095f5761095f613691565b9060005260206000200160009054906101000a90046001600160a01b031683828151811061098f5761098f613691565b60200260200101906001600160a01b031690816001600160a01b031681525050848282815181106109c2576109c2613691565b6020908102919091010152806109d7816136e3565b91505061075f565b5060008511610a715760405162461bcd60e51b815260206004820152605260248201527f5b42696e616e636542616c616e63655661756c742e7769746864726177416c6c60448201527f5d20776974686472617720616d6f756e742073686f756c64206265206c657373606482015271207468616e20757365722062616c616e636560701b608482015260a4016106b3565b7f5e9ce54e362895db90aaec8522f17a201c888cbbe084719a0dc534ca6cd699748282604051610aa29291906136fc565b60405180910390a15050505050565b30600090815261016260205260408120546060918167ffffffffffffffff811115610ade57610ade613439565b604051908082528060200260200182016040528015610b07578160200160208202803683370190505b50905060005b82811015610b915730600090815261016260205260409020805482908110610b3757610b37613691565b9060005260206000200160009054906101000a90046001600160a01b0316828281518110610b6757610b67613691565b6001600160a01b039092166020928302919091019091015280610b89816136e3565b915050610b0d565b5092915050565b61015f5460ff1615610bbc5760405162461bcd60e51b81526004016106b39061362a565b61015f5461010090046001600160a01b03163314610c505760405162461bcd60e51b8152602060048201526044602482018190527f5b42696e616e636542616c616e63655661756c742e7769746864726177466f72908201527f4164646d696e5d2077616c6c65742061646472657373206e6f742062652061646064820152633236b4b760e11b608482015260a4016106b3565b30600090815261016260205260408120548190818167ffffffffffffffff811115610c7d57610c7d613439565b604051908082528060200260200182016040528015610ca6578160200160208202803683370190505b50905060008267ffffffffffffffff811115610cc457610cc4613439565b604051908082528060200260200182016040528015610ced578160200160208202803683370190505b50905060005b83811015610f3757306000908152610162602052604081208054889261016492909185908110610d2557610d25613691565b60009182526020808320909101546001600160a01b03168352820192909252604001902054610d5491906136bd565b3060009081526101626020526040812080549298506101649284908110610d7d57610d7d613691565b60009182526020808320909101546001600160a01b031683528281019390935260409182018120543082526101629093529081208054929750879261016392919085908110610dce57610dce613691565b60009182526020808320909101546001600160a01b0316835282019290925260400181208054909190610e029084906136d0565b9091555050306000908152610162602052604081208054879261016492909185908110610e3157610e31613691565b60009182526020808320909101546001600160a01b0316835282019290925260400181208054909190610e659084906136d0565b9091555050306000908152610162602052604090208054610e959133918891908590811061092157610921613691565b30600090815261016260205260409020805482908110610eb757610eb7613691565b9060005260206000200160009054906101000a90046001600160a01b0316838281518110610ee757610ee7613691565b60200260200101906001600160a01b031690816001600160a01b03168152505084828281518110610f1a57610f1a613691565b602090810291909101015280610f2f816136e3565b915050610cf3565b5060008511610a715760405162461bcd60e51b815260206004820152605860248201527f5b42696e616e636542616c616e63655661756c742e7769746864726177466f7260448201527f4164646d696e5d20776974686472617720616d6f756e742073686f756c64206260648201527f65206c657373207468616e20757365722062616c616e63650000000000000000608482015260a4016106b3565b61015f5460ff1615610ff85760405162461bcd60e51b81526004016106b39061362a565b6097546001600160a01b031633146110225760405162461bcd60e51b81526004016106b390613753565b61102b81612543565b15156001036110ae5760405162461bcd60e51b815260206004820152604360248201527f5b42696e616e636542616c616e63655661756c742e736574546f6b656e41646460448201527f726573735d205468697320746f6b656e206164647265737320697320616c726560648201526261647960e81b608482015260a4016106b3565b3060009081526101626020908152604080832080546001810182559084529282902090920180546001600160a01b0319166001600160a01b03851690811790915591519182527f33a7e73920e7bb871d64f12f439f70e8d764c488da2188d67bd27ddb6020513791015b60405180910390a150565b61015f5460ff16156111475760405162461bcd60e51b81526004016106b39061362a565b6000805160206139bd83398151915261116081336125cc565b61116983612543565b15156001146111e05760405162461bcd60e51b815260206004820152603b60248201527f5b42696e616e636542616c616e63655661756c742e696e63726561736542616c60448201527f616e63655d20746f6b656e2061646472657373206e6f7420736574000000000060648201526084016106b3565b336000908152610160602081815260408084206001600160a01b0388811680875291845282862054908a168652938352818520908552909152909120546112289084906136bd565b101561129c5760405162461bcd60e51b815260206004820152603960248201527f5b42616c616e63655661756c742e696e63726561736542616c616e63655d205560448201527f736572206861732062616c616e6365206f766572666c6f77730000000000000060648201526084016106b3565b6001600160a01b03808516600090815261016060209081526040808320938716835292905290812080548492906112d49084906136bd565b9091555050604080516001600160a01b038086168252861660208201529081018390527fab3f88f4792e035c69d246d0bc8f60ffd647607ee161539f6e39dfedd23d4eba906060015b60405180910390a150505050565b600082815260fb602052604090206001015461134781336125cc565b6113518383612630565b505050565b61015f5460ff161561137a5760405162461bcd60e51b81526004016106b39061362a565b61138382612543565b15156001146113fa5760405162461bcd60e51b815260206004820152603860248201527f5b42696e616e636542616c616e63655661756c742e6465706f736974546f6b6560448201527f6e5d20746f6b656e2061646472657373206e6f7420736574000000000000000060648201526084016106b3565b336000908152610160602090815260408083206001600160a01b038616845290915290205461142982826136bd565b10156114965760405162461bcd60e51b815260206004820152603660248201527f5b42616c616e63655661756c742e6465706f736974546f6b656e5d2055736572604482015275206861732062616c616e6365206f766572666c6f777360501b60648201526084016106b3565b336000908152610160602090815260408083206001600160a01b0386168452909152812080548392906114ca9084906136bd565b90915550506001600160a01b03821660009081526101636020526040812080548392906114f89084906136bd565b909155506115079050826126b6565b151560011461154a57336000908152610161602090815260408220805460018101825590835291200180546001600160a01b0319166001600160a01b0384161790555b61155f6001600160a01b038316333084612731565b604080516001600160a01b0384168152602081018390527f2d0c0a8842b9944ece1495eb61121621b5e36bd6af3bba0318c695f525aef79f91015b60405180910390a15050565b6001600160a01b03811633146116165760405162461bcd60e51b815260206004820152602f60248201527f416363657373436f6e74726f6c3a2063616e206f6e6c792072656e6f756e636560448201526e103937b632b9903337b91039b2b63360891b60648201526084016106b3565b6116208282612769565b5050565b6001600160a01b037f000000000000000000000000000000000000000000000000000000000000000016300361166c5760405162461bcd60e51b81526004016106b390613788565b7f00000000000000000000000000000000000000000000000000000000000000006001600160a01b031661169e6127d0565b6001600160a01b0316146116c45760405162461bcd60e51b81526004016106b3906137d4565b6116cd816127fe565b604080516000808252602082019092526116e991839190612828565b50565b600054610100900460ff1680611705575060005460ff16155b6117215760405162461bcd60e51b81526004016106b390613820565b600054610100900460ff16158015611743576000805461ffff19166101011790555b61015f8054610100600160a81b0319166101006001600160a01b03858116919091029190911790915530600090815261016260209081526040822080546001810182559083529082200180546001600160a01b031916928616929092179091556117ad9033612973565b6117b561297d565b8015611351576000805461ff0019169055505050565b6001600160a01b037f00000000000000000000000000000000000000000000000000000000000000001630036118135760405162461bcd60e51b81526004016106b390613788565b7f00000000000000000000000000000000000000000000000000000000000000006001600160a01b03166118456127d0565b6001600160a01b03161461186b5760405162461bcd60e51b81526004016106b3906137d4565b611874826127fe565b61162082826001612828565b6001600160a01b038116600090815261016160205260408120546060918167ffffffffffffffff8111156118b6576118b6613439565b6040519080825280602002602001820160405280156118df578160200160208202803683370190505b50905060005b82811015611972576001600160a01b03851660009081526101616020526040902080548290811061191857611918613691565b9060005260206000200160009054906101000a90046001600160a01b031682828151811061194857611948613691565b6001600160a01b03909216602092830291909101909101528061196a816136e3565b9150506118e5565b509392505050565b61015f5460ff161561199e5760405162461bcd60e51b81526004016106b39061362a565b6000805160206139bd8339815191526119b781336125cc565b6119c083612543565b1515600114611a375760405162461bcd60e51b815260206004820152603f60248201527f5b42696e616e636542616c616e63655661756c742e696e63726561736542616c60448201527f616e636546726f6d5d20746f6b656e2061646472657373206e6f74207365740060648201526084016106b3565b6001600160a01b0380861660009081526101606020908152604080832093871683529290522054821115611aef5760405162461bcd60e51b815260206004820152605360248201527f5b42616c616e63655661756c742e696e63726561736542616c616e636546726f60448201527f6d5d20646563726561736520616d6f756e742073686f756c64206265206c657360648201527273207468616e20757365722062616c616e636560681b608482015260a4016106b3565b336000908152610160602081815260408084206001600160a01b0388811680875291845282862054908a16865293835281852090855290915290912054611b379084906136bd565b1015611bab5760405162461bcd60e51b815260206004820152603d60248201527f5b42616c616e63655661756c742e696e63726561736542616c616e636546726f60448201527f6d5d2055736572206861732062616c616e6365206f766572666c6f777300000060648201526084016106b3565b6001600160a01b0380861660009081526101606020908152604080832093871683529290529081208054849290611be39084906136d0565b90915550506001600160a01b0380851660009081526101606020908152604080832093871683529290529081208054849290611c209084906136bd565b9091555050604080516001600160a01b0380881682528087166020830152851691810191909152606081018390527ffa06d4df1f15e27865404df066cf94b63eb5b26576df9f77be05dee13604373e90608001610aa2565b6097546001600160a01b03163314611ca25760405162461bcd60e51b81526004016106b390613753565b61015f5460ff16611d1b5760405162461bcd60e51b815260206004820152603a60248201527f5b42696e616e636542616c616e63655661756c742e7768656e42696e616e636560448201527f42616c616e63655661756c745061757365645d2050617573656400000000000060648201526084016106b3565b61015f805460ff191690556040517f31353efb6a725c5e09ec4a0b5720469d3cb104ffd44bd96a0ade97ac9c5a9c2390600090a1565b6097546001600160a01b03163314611d7b5760405162461bcd60e51b81526004016106b390613753565b61015f80546001600160a01b0390921661010002610100600160a81b0319909216919091179055565b6097546001600160a01b03163314611dce5760405162461bcd60e51b81526004016106b390613753565b611dd860006129f8565b565b805160005b81811015611e1c57611e0a84848381518110611dfd57611dfd613691565b602002602001015161132b565b80611e14816136e3565b915050611ddf565b50505050565b600091825260fb602090815260408084206001600160a01b0393909316845291905290205460ff1690565b61015f5460ff1615611e715760405162461bcd60e51b81526004016106b39061362a565b6097546001600160a01b03163314611e9b5760405162461bcd60e51b81526004016106b390613753565b611ea481612543565b1515600114611f1d576040805162461bcd60e51b81526020600482015260248101919091527f5b42696e616e636542616c616e63655661756c742e64656c657465546f6b656e60448201527f416464726573735d20746f6b656e2061646472657373206e6f7420666f756e6460648201526084016106b3565b611f2681612a4a565b6040516001600160a01b03821681527f05a3daba58b0a2ce99229c0ae25e1c620c635e47bf3f7a03724f35e88d35398090602001611118565b6097546001600160a01b03163314611f895760405162461bcd60e51b81526004016106b390613753565b61015f5460ff1615611fad5760405162461bcd60e51b81526004016106b39061362a565b61015f805460ff191660011790556040517fcc5d6990a09b8d2afe329b26da60f7b3999856e3b4e038ba861a2ee74599ab6690600090a1565b61015f5460ff161561200a5760405162461bcd60e51b81526004016106b39061362a565b6000805160206139bd83398151915261202381336125cc565b61202c83612543565b15156001146120a35760405162461bcd60e51b815260206004820152603b60248201527f5b42696e616e636542616c616e63655661756c742e646563726561736542616c60448201527f616e63655d20746f6b656e2061646472657373206e6f7420736574000000000060648201526084016106b3565b6001600160a01b03808516600090815261016060209081526040808320938716835292905220548211156121575760405162461bcd60e51b815260206004820152604f60248201527f5b42616c616e63655661756c742e646563726561736542616c616e63655d206460448201527f6563726561736520616d6f756e742073686f756c64206265206c65737320746860648201526e616e20757365722062616c616e636560881b608482015260a4016106b3565b6001600160a01b038085166000908152610160602090815260408083209387168352929052908120805484929061218f9084906136d0565b90915550506001600160a01b03831660009081526101646020526040812080548492906121bd9084906136bd565b9091555050604080516001600160a01b038086168252861660208201529081018390527f7e1b1f7eb7d15fba5328bcd13eb1ca2bc168a5166f9a4246663f9cdcbec799e99060600161131d565b600082815260fb602052604090206001015461222681336125cc565b6113518383612769565b61015f5460ff16156122545760405162461bcd60e51b81526004016106b39061362a565b61225d82612543565b15156001146122d45760405162461bcd60e51b815260206004820152603b60248201527f5b42696e616e636542616c616e63655661756c742e776974686472617742795460448201527f6f6b656e5d20746f6b656e2061646472657373206e6f7420736574000000000060648201526084016106b3565b336000908152610160602090815260408083206001600160a01b038616845290915290205481111561238d5760405162461bcd60e51b815260206004820152605660248201527f5b42696e616e636542616c616e63655661756c742e776974686472617742795460448201527f6f6b656e5d20776974686472617720616d6f756e742073686f756c64206265206064820152756c657373207468616e20757365722062616c616e636560501b608482015260a4016106b3565b336000908152610160602090815260408083206001600160a01b0386168452909152812080548392906123c19084906136d0565b90915550506001600160a01b03821660009081526101636020526040812080548392906123ef9084906136d0565b9091555061240990506001600160a01b03831633836124e0565b604080516001600160a01b0384168152602081018390527f63aaa9dbd48dc88457bb6dc4c19939c9832c304eedfece8fef7404976b5e5e6d910161159a565b6097546001600160a01b031633146124725760405162461bcd60e51b81526004016106b390613753565b6001600160a01b0381166124d75760405162461bcd60e51b815260206004820152602660248201527f4f776e61626c653a206e6577206f776e657220697320746865207a65726f206160448201526564647265737360d01b60648201526084016106b3565b6116e9816129f8565b6040516001600160a01b03831660248201526044810182905261135190849063a9059cbb60e01b906064015b60408051601f198184030181529190526020810180516001600160e01b03166001600160e01b031990931692909217909152612c25565b306000908152610162602052604081205481805b828110156125c4573060009081526101626020526040902080546001600160a01b03871691908390811061258d5761258d613691565b6000918252602090912001546001600160a01b0316036125b257506001949350505050565b806125bc816136e3565b915050612557565b505050919050565b6125d68282611e22565b611620576125ee816001600160a01b03166014612cf7565b6125f9836020612cf7565b60405160200161260a929190613892565b60408051601f198184030181529082905262461bcd60e51b82526106b391600401613907565b61263a8282611e22565b61162057600082815260fb602090815260408083206001600160a01b03851684529091529020805460ff191660011790556126723390565b6001600160a01b0316816001600160a01b0316837f2f8788117e7eff1d82e926ec794901d17c78024a50270940304540a733656f0d60405160405180910390a45050565b336000908152610161602052604081205481805b82811015611972573060009081526101626020526040902080546001600160a01b03871691908390811061270057612700613691565b6000918252602090912001546001600160a01b03160361271f57600191505b80612729816136e3565b9150506126ca565b6040516001600160a01b0380851660248301528316604482015260648101829052611e1c9085906323b872dd60e01b9060840161250c565b6127738282611e22565b1561162057600082815260fb602090815260408083206001600160a01b0385168085529252808320805460ff1916905551339285917ff6391f5c32d9c69d2a47ea670b442974b53935d1edc7fd64eb21e047a839171b9190a45050565b7f360894a13ba1a3210667c828492db98dca3e2076cc3735a920a3ca505d382bbc546001600160a01b031690565b6097546001600160a01b031633146116e95760405162461bcd60e51b81526004016106b390613753565b60006128326127d0565b905061283d84612e9a565b60008351118061284a5750815b1561285b576128598484612f3f565b505b7f4910fdfa16fed3260ed0e7147f7cc6da11a60208b5b9406d12a635614ffd9143805460ff1661296c57805460ff191660011781556040516001600160a01b03831660248201526128da90869060440160408051601f198184030181529190526020810180516001600160e01b0316631b2ce7f360e11b179052612f3f565b50805460ff191681556128eb6127d0565b6001600160a01b0316826001600160a01b0316146129635760405162461bcd60e51b815260206004820152602f60248201527f45524331393637557067726164653a207570677261646520627265616b73206660448201526e75727468657220757067726164657360881b60648201526084016106b3565b61296c8561302a565b5050505050565b6116208282612630565b600054610100900460ff1680612996575060005460ff16155b6129b25760405162461bcd60e51b81526004016106b390613820565b600054610100900460ff161580156129d4576000805461ffff19166101011790555b6129dc61306a565b6129e46130d4565b80156116e9576000805461ff001916905550565b609780546001600160a01b038381166001600160a01b0319831681179093556040519116919082907f8be0079c531659141344cd1fd0a4f28419497f9722a3daafe3b4186f6b6457e090600090a35050565b6000805b3060009081526101626020526040902054811015612ac4573060009081526101626020526040902080546001600160a01b038516919083908110612a9457612a94613691565b6000918252602090912001546001600160a01b031603612ab2578091505b80612abc816136e3565b915050612a4e565b5030600090815261016260205260409020548110612b195760405162461bcd60e51b81526020600482015260126024820152711a5b99195e081bdd5d081bd988189bdd5b9960721b60448201526064016106b3565b805b3060009081526101626020526040902054612b38906001906136d0565b811015612bdf5730600090815261016260205260409020612b5a8260016136bd565b81548110612b6a57612b6a613691565b6000918252602080832090910154308352610162909152604090912080546001600160a01b039092169183908110612ba457612ba4613691565b600091825260209091200180546001600160a01b0319166001600160a01b039290921691909117905580612bd7816136e3565b915050612b1b565b5030600090815261016260205260409020805480612bff57612bff61393a565b600082815260209020810160001990810180546001600160a01b03191690550190555050565b6000612c7a826040518060400160405280602081526020017f5361666545524332303a206c6f772d6c6576656c2063616c6c206661696c6564815250856001600160a01b03166131349092919063ffffffff16565b8051909150156113515780806020019051810190612c989190613950565b6113515760405162461bcd60e51b815260206004820152602a60248201527f5361666545524332303a204552433230206f7065726174696f6e20646964206e6044820152691bdd081cdd58d8d9595960b21b60648201526084016106b3565b60606000612d06836002613972565b612d119060026136bd565b67ffffffffffffffff811115612d2957612d29613439565b6040519080825280601f01601f191660200182016040528015612d53576020820181803683370190505b509050600360fc1b81600081518110612d6e57612d6e613691565b60200101906001600160f81b031916908160001a905350600f60fb1b81600181518110612d9d57612d9d613691565b60200101906001600160f81b031916908160001a9053506000612dc1846002613972565b612dcc9060016136bd565b90505b6001811115612e44576f181899199a1a9b1b9c1cb0b131b232b360811b85600f1660108110612e0057612e00613691565b1a60f81b828281518110612e1657612e16613691565b60200101906001600160f81b031916908160001a90535060049490941c93612e3d81613989565b9050612dcf565b508315612e935760405162461bcd60e51b815260206004820181905260248201527f537472696e67733a20686578206c656e67746820696e73756666696369656e7460448201526064016106b3565b9392505050565b803b612efe5760405162461bcd60e51b815260206004820152602d60248201527f455243313936373a206e657720696d706c656d656e746174696f6e206973206e60448201526c1bdd08184818dbdb9d1c9858dd609a1b60648201526084016106b3565b7f360894a13ba1a3210667c828492db98dca3e2076cc3735a920a3ca505d382bbc80546001600160a01b0319166001600160a01b0392909216919091179055565b6060823b612f9e5760405162461bcd60e51b815260206004820152602660248201527f416464726573733a2064656c65676174652063616c6c20746f206e6f6e2d636f6044820152651b9d1c9858dd60d21b60648201526084016106b3565b600080846001600160a01b031684604051612fb991906139a0565b600060405180830381855af49150503d8060008114612ff4576040519150601f19603f3d011682016040523d82523d6000602084013e612ff9565b606091505b509150915061302182826040518060600160405280602781526020016139dd6027913961314b565b95945050505050565b61303381612e9a565b6040516001600160a01b038216907fbc7cd75a20ee27fd9adebab32041f755214dbc6bffa90cc0225b39da2e5c2d3b90600090a250565b600054610100900460ff1680613083575060005460ff16155b61309f5760405162461bcd60e51b81526004016106b390613820565b600054610100900460ff161580156129e4576000805461ffff191661010117905580156116e9576000805461ff001916905550565b600054610100900460ff16806130ed575060005460ff16155b6131095760405162461bcd60e51b81526004016106b390613820565b600054610100900460ff1615801561312b576000805461ffff19166101011790555b6129e4336129f8565b60606131438484600085613184565b949350505050565b6060831561315a575081612e93565b82511561316a5782518084602001fd5b8160405162461bcd60e51b81526004016106b39190613907565b6060824710156131e55760405162461bcd60e51b815260206004820152602660248201527f416464726573733a20696e73756666696369656e742062616c616e636520666f6044820152651c8818d85b1b60d21b60648201526084016106b3565b843b6132335760405162461bcd60e51b815260206004820152601d60248201527f416464726573733a2063616c6c20746f206e6f6e2d636f6e747261637400000060448201526064016106b3565b600080866001600160a01b0316858760405161324f91906139a0565b60006040518083038185875af1925050503d806000811461328c576040519150601f19603f3d011682016040523d82523d6000602084013e613291565b606091505b50915091506132a182828661314b565b979650505050505050565b6000602082840312156132be57600080fd5b81356001600160e01b031981168114612e9357600080fd5b600081518084526020808501945080840160005b8381101561330f5781516001600160a01b0316875295820195908201906001016132ea565b509495945050505050565b602081526000612e9360208301846132d6565b60006020828403121561333f57600080fd5b5035919050565b80356001600160a01b038116811461335d57600080fd5b919050565b60006020828403121561337457600080fd5b612e9382613346565b60008060006060848603121561339257600080fd5b61339b84613346565b92506133a960208501613346565b9150604084013590509250925092565b600080604083850312156133cc57600080fd5b823591506133dc60208401613346565b90509250929050565b600080604083850312156133f857600080fd5b61340183613346565b946020939093013593505050565b6000806040838503121561342257600080fd5b61342b83613346565b91506133dc60208401613346565b634e487b7160e01b600052604160045260246000fd5b604051601f8201601f1916810167ffffffffffffffff8111828210171561347857613478613439565b604052919050565b6000806040838503121561349357600080fd5b61349c83613346565b915060208084013567ffffffffffffffff808211156134ba57600080fd5b818601915086601f8301126134ce57600080fd5b8135818111156134e0576134e0613439565b6134f2601f8201601f1916850161344f565b9150808252878482850101111561350857600080fd5b80848401858401376000848284010152508093505050509250929050565b6000806000806080858703121561353c57600080fd5b61354585613346565b935061355360208601613346565b925061356160408601613346565b9396929550929360600135925050565b6000806040838503121561358457600080fd5b8235915060208084013567ffffffffffffffff808211156135a457600080fd5b818601915086601f8301126135b857600080fd5b8135818111156135ca576135ca613439565b8060051b91506135db84830161344f565b81815291830184019184810190898411156135f557600080fd5b938501935b8385101561361a5761360b85613346565b825293850193908501906135fa565b8096505050505050509250929050565b60208082526041908201527f5b42696e616e636542616c616e63655661756c742e7768656e42696e616e636560408201527f42616c616e63655661756c744e6f745061757365645d204e6f742050617573656060820152601960fa1b608082015260a00190565b634e487b7160e01b600052603260045260246000fd5b634e487b7160e01b600052601160045260246000fd5b80820180821115610689576106896136a7565b81810381811115610689576106896136a7565b6000600182016136f5576136f56136a7565b5060010190565b60408152600061370f60408301856132d6565b82810360208481019190915284518083528582019282019060005b818110156137465784518352938301939183019160010161372a565b5090979650505050505050565b6020808252818101527f4f776e61626c653a2063616c6c6572206973206e6f7420746865206f776e6572604082015260600190565b6020808252602c908201527f46756e6374696f6e206d7573742062652063616c6c6564207468726f7567682060408201526b19195b1959d85d1958d85b1b60a21b606082015260800190565b6020808252602c908201527f46756e6374696f6e206d7573742062652063616c6c6564207468726f7567682060408201526b6163746976652070726f787960a01b606082015260800190565b6020808252602e908201527f496e697469616c697a61626c653a20636f6e747261637420697320616c72656160408201526d191e481a5b9a5d1a585b1a5e995960921b606082015260800190565b60005b83811015613889578181015183820152602001613871565b50506000910152565b7f416363657373436f6e74726f6c3a206163636f756e74200000000000000000008152600083516138ca81601785016020880161386e565b7001034b99036b4b9b9b4b733903937b6329607d1b60179184019182015283516138fb81602884016020880161386e565b01602801949350505050565b602081526000825180602084015261392681604085016020870161386e565b601f01601f19169190910160400192915050565b634e487b7160e01b600052603160045260246000fd5b60006020828403121561396257600080fd5b81518015158114612e9357600080fd5b8082028115828204841417610689576106896136a7565b600081613998576139986136a7565b506000190190565b600082516139b281846020870161386e565b919091019291505056fef1b411d6abb365480ac902cc153c45e9ded5847a2265ce6d01945d253edb6bc7416464726573733a206c6f772d6c6576656c2064656c65676174652063616c6c206661696c6564a2646970667358221220afcd694e75e8ab587899b1ddde20aa643f79b1211e2fe08eec642209b763741264736f6c63430008110033",
  "linkReferences": {},
  "deployedLinkReferences": {}
}